0775260000000090202401220054650001.3090                                                                                                                                                                                                                                                                                                                                                                                                                                                                                                                                                                                                                                                                                                                                                                                                                                                                                       000001
177526000000009000001     062232889000190717709001000926854  00006027446692920240121202401222024012220250121JENNIFER SCHMITT                                  Rua America do Sul                                1000                A                                                 Centro                                            Pinhais                                                     PR83323370                        19610620MSRG        95368924            PR             202002080000000001980000000000000098800100073188 00001675465388384              0000000000000120000000000000000000000000000000476                                              141991                                            11 987654321                                                                                                                                                                                    000002
177526000000009000001     062232889000190717709001000990771  00002142794203020240121202401222024012220250121CHRISTOPHER SMALL                                 Rua America do Sul                                1000                A                                                 Centro                                            Pinhais                                                     PR83323370                        19601220MSRG        52195948            PR             202003080000000001980000000000000098800100071487 00001675283512945              0000000000000120000000000000000000000000000000476                                              141991                                            11 987654321                                                                                                                                                                                    000003
177526000000009000001     062232889000190717709001000925314  00002644026865120240121202401222024012220250121PETER ROBINSON                                    Rua America do Sul                                1000                A                                                 Centro                                            Pinhais                                                     PR83323370                        19620721MSRG        71260529            PR             202002210000000001980000000000000098800100089039 00001675869366910              0000000000000120000000000000000000000000000000476                                              141991                                            11 987654321                                                                                                                                                                                    000004
177526000000009000001     062232889000190717709001000936589  00006437995599020240121202401222024012220250121NICHOLAS HOLT                                     Rua America do Sul                                1000                A                                                 Centro                                            Pinhais                                                     PR83323370                        19620501MSRG        14595602            PR             202002250000000001980000000000000098800100055712 00001679818459135              0000000000000120000000000000000000000000000000476                                              141991                                            11 987654321                                                                                                                                                                                    000005
177526000000009000001     062232889000190717709001000954238  00003710525667220240121202401222024012220250121SARA WALTON                                       Rua America do Sul                                1000                A                                                 Centro                                            Pinhais                                                     PR83323370                        19620623MSRG        11506295            PR             202002140000000001980000000000000098800100015733 00001676013677918              0000000000000120000000000000000000000000000000476                                              141991                                            11 987654321                                                                                                                                                                                    000006
9000005                                                                                                                                                                                                                                                                                                                                                                                                                                                                                                                                                                                                                                                                                                                                                                                                                                                                                                                       000007